{
  "address": "0x5AD34C6957d3791AF8d73aBF20976993C8EFcb44",
  "abi": [
    {
      "inputs": [],
      "name": "EnforcedPause",
      "type": "error"
    },
    {
      "inputs": [],
      "name": "ExpectedPause",
      "type": "error"
    },
    {
      "inputs": [],
      "name": "InvalidInitialization",
      "type": "error"
    },
    {
      "inputs": [],
      "name": "NotInitializing",
      "type": "error"
    },
    {
      "inputs": [
        {
          "internalType": "address",
          "name": "owner",
          "type": "address"
        }
      ],
      "name": "OwnableInvalidOwner",
      "type": "error"
    },
    {
      "inputs": [
        {
          "internalType": "address",
          "name": "account",
          "type": "address"
        }
      ],
      "name": "OwnableUnauthorizedAccount",
      "type": "error"
    },
    {
      "inputs": [],
      "name": "ReentrancyGuardReentrantCall",
      "type": "error"
    },
    {
      "anonymous": false,
      "inputs": [
        {
          "indexed": true,
          "internalType": "address",
          "name": "player",
          "type": "address"
        },
        {
          "indexed": false,
          "internalType": "uint256",
          "name": "amount",
          "type": "uint256"
        },
        {
          "indexed": false,
          "internalType": "enum BaccaratGame.BetType",
          "name": "betType",
          "type": "uint8"
        }
      ],
      "name": "BetPlaced",
      "type": "event"
    },
    {
      "anonymous": false,
      "inputs": [
        {
          "indexed": true,
          "internalType": "address",
          "name": "player",
          "type": "address"
        },
        {
          "indexed": false,
          "internalType": "uint256",
          "name": "blockNumber",
          "type": "uint256"
        }
      ],
      "name": "GameCommitted",
      "type": "event"
    },
    {
      "anonymous": false,
      "inputs": [
        {
          "indexed": true,
          "internalType": "bytes32",
          "name": "gameId",
          "type": "bytes32"
        },
        {
          "indexed": false,
          "internalType": "enum BaccaratGame.BetType",
          "name": "winner",
          "type": "uint8"
        }
      ],
      "name": "GameCompleted",
      "type": "event"
    },
    {
      "anonymous": false,
      "inputs": [
        {
          "indexed": true,
          "internalType": "bytes32",
          "name": "gameId",
          "type": "bytes32"
        }
      ],
      "name": "GameStarted",
      "type": "event"
    },
    {
      "anonymous": false,
      "inputs": [
        {
          "indexed": true,
          "internalType": "address",
          "name": "player",
          "type": "address"
        },
        {
          "indexed": false,
          "internalType": "uint256",
          "name": "amount",
          "type": "uint256"
        }
      ],
      "name": "HouseEdgeRebateClaimed",
      "type": "event"
    },
    {
      "anonymous": false,
      "inputs": [
        {
          "indexed": false,
          "internalType": "uint64",
          "name": "version",
          "type": "uint64"
        }
      ],
      "name": "Initialized",
      "type": "event"
    },
    {
      "anonymous": false,
      "inputs": [
        {
          "indexed": true,
          "internalType": "address",
          "name": "previousOwner",
          "type": "address"
        },
        {
          "indexed": true,
          "internalType": "address",
          "name": "newOwner",
          "type": "address"
        }
      ],
      "name": "OwnershipTransferred",
      "type": "event"
    },
    {
      "anonymous": false,
      "inputs": [
        {
          "indexed": false,
          "internalType": "address",
          "name": "account",
          "type": "address"
        }
      ],
      "name": "Paused",
      "type": "event"
    },
    {
      "anonymous": false,
      "inputs": [
        {
          "indexed": true,
          "internalType": "address",
          "name": "player",
          "type": "address"
        },
        {
          "indexed": false,
          "internalType": "uint256",
          "name": "amount",
          "type": "uint256"
        }
      ],
      "name": "Payout",
      "type": "event"
    },
    {
      "anonymous": false,
      "inputs": [
        {
          "indexed": false,
          "internalType": "address",
          "name": "account",
          "type": "address"
        }
      ],
      "name": "Unpaused",
      "type": "event"
    },
    {
      "inputs": [],
      "name": "BANKER_HOUSE_EDGE",
      "outputs": [
        {
          "internalType": "uint256",
          "name": "",
          "type": "uint256"
        }
      ],
      "stateMutability": "view",
      "type": "function"
    },
    {
      "inputs": [],
      "name": "PLAYER_HOUSE_EDGE",
      "outputs": [
        {
          "internalType": "uint256",
          "name": "",
          "type": "uint256"
        }
      ],
      "stateMutability": "view",
      "type": "function"
    },
    {
      "inputs": [],
      "name": "TIE_HOUSE_EDGE",
      "outputs": [
        {
          "internalType": "uint256",
          "name": "",
          "type": "uint256"
        }
      ],
      "stateMutability": "view",
      "type": "function"
    },
    {
      "inputs": [
        {
          "internalType": "uint256",
          "name": "playerSeed",
          "type": "uint256"
        }
      ],
      "name": "commitToPlay",
      "outputs": [],
      "stateMutability": "nonpayable",
      "type": "function"
    },
    {
      "inputs": [
        {
          "internalType": "address",
          "name": "",
          "type": "address"
        }
      ],
      "name": "commitments",
      "outputs": [
        {
          "internalType": "uint256",
          "name": "blockNumber",
          "type": "uint256"
        },
        {
          "internalType": "uint256",
          "name": "playerSeed",
          "type": "uint256"
        }
      ],
      "stateMutability": "view",
      "type": "function"
    },
    {
      "inputs": [],
      "name": "freeChipsToken",
      "outputs": [
        {
          "internalType": "contract FreeChips",
          "name": "",
          "type": "address"
        }
      ],
      "stateMutability": "view",
      "type": "function"
    },
    {
      "inputs": [
        {
          "internalType": "bytes32",
          "name": "",
          "type": "bytes32"
        }
      ],
      "name": "games",
      "outputs": [
        {
          "internalType": "enum BaccaratGame.BetType",
          "name": "winner",
          "type": "uint8"
        },
        {
          "internalType": "bool",
          "name": "isCompleted",
          "type": "bool"
        }
      ],
      "stateMutability": "view",
      "type": "function"
    },
    {
      "inputs": [],
      "name": "houseEdgeAccumulated",
      "outputs": [
        {
          "internalType": "uint256",
          "name": "",
          "type": "uint256"
        }
      ],
      "stateMutability": "view",
      "type": "function"
    },
    {
      "inputs": [
        {
          "internalType": "address",
          "name": "_freeChipsToken",
          "type": "address"
        }
      ],
      "name": "initialize",
      "outputs": [],
      "stateMutability": "nonpayable",
      "type": "function"
    },
    {
      "inputs": [],
      "name": "owner",
      "outputs": [
        {
          "internalType": "address",
          "name": "",
          "type": "address"
        }
      ],
      "stateMutability": "view",
      "type": "function"
    },
    {
      "inputs": [],
      "name": "pause",
      "outputs": [],
      "stateMutability": "nonpayable",
      "type": "function"
    },
    {
      "inputs": [],
      "name": "paused",
      "outputs": [
        {
          "internalType": "bool",
          "name": "",
          "type": "bool"
        }
      ],
      "stateMutability": "view",
      "type": "function"
    },
    {
      "inputs": [
        {
          "internalType": "enum BaccaratGame.BetType",
          "name": "_betType",
          "type": "uint8"
        },
        {
          "internalType": "uint256",
          "name": "_amount",
          "type": "uint256"
        }
      ],
      "name": "placeBet",
      "outputs": [],
      "stateMutability": "nonpayable",
      "type": "function"
    },
    {
      "inputs": [
        {
          "internalType": "address",
          "name": "",
          "type": "address"
        }
      ],
      "name": "playerHouseEdgeBalances",
      "outputs": [
        {
          "internalType": "uint256",
          "name": "",
          "type": "uint256"
        }
      ],
      "stateMutability": "view",
      "type": "function"
    },
    {
      "inputs": [],
      "name": "renounceOwnership",
      "outputs": [],
      "stateMutability": "nonpayable",
      "type": "function"
    },
    {
      "inputs": [
        {
          "internalType": "address",
          "name": "newOwner",
          "type": "address"
        }
      ],
      "name": "transferOwnership",
      "outputs": [],
      "stateMutability": "nonpayable",
      "type": "function"
    },
    {
      "inputs": [],
      "name": "unpause",
      "outputs": [],
      "stateMutability": "nonpayable",
      "type": "function"
    }
  ],
  "transactionHash": "0x7f655bbe4e927c7688168504924ce57d0f92c5f13584048dce968fb8dd7f00e3",
  "args": [],
  "numDeployments": 2,
  "solcInputHash": "f263e43376895bd835fa903715714e68",
  "bytecode": "0x608060405234801561001057600080fd5b5061187d806100206000396000f3fe608060405234801561001057600080fd5b506004361061010b5760003560e01c80638da5cb5b116100a2578063dcb3b30e11610071578063dcb3b30e1461021b578063e482b3b11461022e578063e8fcf72314610236578063f2fde38b14610272578063f579f8821461028557600080fd5b80638da5cb5b146101c65780639fdd6baa146101f6578063a8865e2d146101ff578063c4d66de81461020857600080fd5b806369175519116100de578063691755191461019b578063715018a6146101a35780638296628b146101ab5780638456cb59146101be57600080fd5b806313c16027146101105780633f4ba83a146101405780634c2a3de71461014a5780635c975abb14610178575b600080fd5b600054610123906001600160a01b031681565b6040516001600160a01b0390911681526020015b60405180910390f35b6101486102c6565b005b61016a6101583660046115e9565b60036020526000908152604090205481565b604051908152602001610137565b6000805160206118288339815191525460ff166040519015158152602001610137565b61016a606a81565b6101486102d8565b6101486101b9366004611612565b6102ea565b6101486103ba565b7f9016d09d72d40fdae2fd8ceac6b6234c7706214fd39c1cd1e609a0528c199300546001600160a01b0316610123565b61016a61059c81565b61016a60015481565b6101486102163660046115e9565b6103ca565b61014861022936600461162b565b610505565b61016a607c81565b61025d6102443660046115e9565b6004602052600090815260409020805460019091015482565b60408051928352602083019190915201610137565b6101486102803660046115e9565b610851565b6102b8610293366004611612565b60026020819052600091825260409091209081015460049091015460ff918216911682565b604051610137929190611693565b6102ce61088f565b6102d66108ea565b565b6102e061088f565b6102d6600061094a565b6102f26109bb565b33600090815260046020526040902054156103545760405162461bcd60e51b815260206004820152601960248201527f4578697374696e6720636f6d6d69746d656e7420666f756e640000000000000060448201526064015b60405180910390fd5b60408051808201825243808252602080830185815233600081815260048452869020945185559051600190940193909355925190815290917f5d6ab9069bb29a5bc8580fd52229361a308cc7e5f41d48d21a88294d6bf4271d910160405180910390a250565b6103c261088f565b6102d66109ec565b7ff0c57e16840df040f15088dc2f81fe391c3923bec73e23a9662efc9c229c6a008054600160401b810460ff16159067ffffffffffffffff166000811580156104105750825b905060008267ffffffffffffffff16600114801561042d5750303b155b90508115801561043b575080155b156104595760405163f92ee8a960e01b815260040160405180910390fd5b845467ffffffffffffffff19166001178555831561048357845460ff60401b1916600160401b1785555b61048b610a35565b61049433610a45565b61049c610a56565b600080546001600160a01b0319166001600160a01b03881617905583156104fd57845460ff60401b19168555604051600181527fc7f505b2f371ae2175ee4913f4499e1f2633a7b5936321eed1cdaeb6115181d29060200160405180910390a15b505050505050565b61050d610a66565b6105156109bb565b60008054604051636eb1769f60e11b81523360048201523060248201526001600160a01b039091169063dd62ed3e90604401602060405180830381865afa158015610564573d6000803e3d6000fd5b505050506040513d601f19601f8201168201806040525081019061058891906116b0565b9050818110156105e45760405162461bcd60e51b815260206004820152602160248201527f496e73756666696369656e74204652454520746f6b656e20616c6c6f77616e636044820152606560f81b606482015260840161034b565b600080546040516323b872dd60e01b8152336004820152306024820152604481018590526001600160a01b03909116906323b872dd906064016020604051808303816000875af115801561063c573d6000803e3d6000fd5b505050506040513d601f19601f8201168201806040525081019061066091906116c9565b9050806106a65760405162461bcd60e51b815260206004820152601460248201527311949151481d1c985b9cd9995c8819985a5b195960621b604482015260640161034b565b600042336040516020016106d692919091825260601b6bffffffffffffffffffffffff1916602082015260340190565b604051602081830303815290604052805190602001209050600260008281526020019081526020016000206003016040518060600160405280336001600160a01b031681526020018681526020018760028111156107365761073661165b565b90528154600180820184556000938452602093849020835160039093020180546001600160a01b0319166001600160a01b039093169290921782559282015181840155604082015160028083018054949593949293909260ff19169184908111156107a3576107a361165b565b02179055505050336001600160a01b03167f7df19a783369d9cefb06e18b396518f817b48766b74157758eda633a62f58fa785876040516107e59291906116eb565b60405180910390a260405181907fee5528ba4f234f658c6a97a7e3cba5532e7aad23bb249be4141b62e6a0158a7c90600090a261082181610ab0565b50505061084d60017f9b779b17422d0df92223018b32b4d1fa46e071723d6817e2486d003becc55f0055565b5050565b61085961088f565b6001600160a01b03811661088357604051631e4fbdf760e01b81526000600482015260240161034b565b61088c8161094a565b50565b336108c17f9016d09d72d40fdae2fd8ceac6b6234c7706214fd39c1cd1e609a0528c199300546001600160a01b031690565b6001600160a01b0316146102d65760405163118cdaa760e01b815233600482015260240161034b565b6108f2610be0565b600080516020611828833981519152805460ff191681557f5db9ee0a495bf2e6ff9c91a7834c1ba4fdd244a5e8aa4e537bd38aeae4b073aa335b6040516001600160a01b03909116815260200160405180910390a150565b7f9016d09d72d40fdae2fd8ceac6b6234c7706214fd39c1cd1e609a0528c19930080546001600160a01b031981166001600160a01b03848116918217845560405192169182907f8be0079c531659141344cd1fd0a4f28419497f9722a3daafe3b4186f6b6457e090600090a3505050565b6000805160206118288339815191525460ff16156102d65760405163d93c066560e01b815260040160405180910390fd5b6109f46109bb565b600080516020611828833981519152805460ff191660011781557f62e78cea01bee320cd4e420270b5ea74000d11b0c9f74754ebdbfc544b05a2583361092c565b610a3d610c10565b6102d6610c59565b610a4d610c10565b61088c81610c61565b610a5e610c10565b6102d6610c69565b7f9b779b17422d0df92223018b32b4d1fa46e071723d6817e2486d003becc55f00805460011901610aaa57604051633ee5aeb560e01b815260040160405180910390fd5b60029055565b6000818152600260205260409020600481015460ff1615610b0c5760405162461bcd60e51b815260206004820152601660248201527511d85b5948185b1c9958591e4818dbdb5c1b195d195960521b604482015260640161034b565b610b1582610c8a565b610b1e82610f12565b610b2782611002565b60048101805460ff19166001179055600281015460405183917f4171782c16020a6a18d5561e6af8e7831d8466d403ffbc0d9618b0de62aa85fc91610b6f9160ff16906116ff565b60405180910390a26000828152600260205260408120818155906000600183015560028201805460ff19169055610baa600383016000611597565b50600401805460ff191690555050565b60017f9b779b17422d0df92223018b32b4d1fa46e071723d6817e2486d003becc55f0055565b6000805160206118288339815191525460ff166102d657604051638dfc202b60e01b815260040160405180910390fd5b7ff0c57e16840df040f15088dc2f81fe391c3923bec73e23a9662efc9c229c6a0054600160401b900460ff166102d657604051631afcd79f60e31b815260040160405180910390fd5b610bba610c10565b610859610c10565b610c71610c10565b600080516020611828833981519152805460ff19169055565b600081815260026020526040812090610ca1611278565b9050610cae600d82611723565b610cb990600161174d565b825460ff191660ff91909116178255600d610cd48183611776565b610cde9190611723565b610ce990600161174d565b825460ff919091166101000261ff0019909116178255600d610d0c60a983611776565b610d169190611723565b610d2190600161174d565b60018301805460ff191660ff92909216919091179055600d610d4561089583611776565b610d4f9190611723565b610d5a90600161174d565b60018301805460ff929092166101000261ff0019909216919091179055604080516060810191829052600091610dcc919085906003908286855b825461010083900a900460ff16815260206001928301818104948501949093039092029101808411610d9457905050505050506113fa565b6040805160608101918290526001868101805460ff168352939450600093610e0d93909160039190839060208601808411610d9457905050505050506113fa565b905060088260ff16108015610e25575060088160ff16105b15610f0b5760058260ff1611610eac57600d610e43616f9185611776565b610e4d9190611723565b610e5890600161174d565b845462ff00001981166201000060ff93841602908117875560408051606081019182905292841691909316178152610ea991869060039082600160208601808411610d9457905050505050506113fa565b91505b8354610ec290829062010000900460ff166114a4565b15610f0b57600d610ed66205aa5d85611776565b610ee09190611723565b610eeb90600161174d565b60018501805460ff92909216620100000262ff0000199092169190911790555b5050505050565b600081815260026020908152604080832081516060810192839052815460ff168152909392610f5b9285916003919083906001908601808411610d9457905050505050506113fa565b6040805160608101918290526001858101805460ff168352939450600093610f9c93909160039190839060208601808411610d9457905050505050506113fa565b90508060ff168260ff161115610fc8576002830180546000919060ff19166001835b0217905550610ffc565b8160ff168160ff161115610feb576002830180546001919060ff19168280610fbe565b6002838101805460ff191690911790555b50505050565b6000818152600260205260408120905b600382015481101561127357600082600301828154811061103557611035611760565b600091825260209182902060408051606081018252600390930290910180546001600160a01b031683526001810154938301939093526002808401549293929184019160ff169081111561108b5761108b61165b565b600281111561109c5761109c61165b565b905250905060008080836040015160028111156110bb576110bb61165b565b036110e557612710607c84602001516110d4919061178a565b6110de9190611776565b9050611138565b6001836040015160028111156110fd576110fd61165b565b0361111657612710606a84602001516110d4919061178a565b61271061059c846020015161112b919061178a565b6111359190611776565b90505b60028086015460ff16908111156111515761115161165b565b836040015160028111156111675761116761165b565b036112455761117e83602001518460400151611566565b600054845160405163a9059cbb60e01b81526001600160a01b03918216600482015260248101849052929450169063a9059cbb906044016020604051808303816000875af11580156111d4573d6000803e3d6000fd5b505050506040513d601f19601f820116820180604052508101906111f891906116c9565b5082600001516001600160a01b03167f5afeca38b2064c23a692c4cf353015d80ab3ecc417b4f893f372690c11fbd9a68360405161123891815260200190565b60405180910390a261125d565b8060016000828254611257919061174d565b90915550505b505050808061126b906117a1565b915050611012565b505050565b3360009081526004602090815260408083208151808301909252805480835260019091015492820192909252906112e75760405162461bcd60e51b8152602060048201526013602482015272139bc818dbdb5b5a5d1b595b9d08199bdd5b99606a1b604482015260640161034b565b8051431161132d5760405162461bcd60e51b81526020600482015260136024820152725761697420666f72206e65787420626c6f636b60681b604482015260640161034b565b80516101009061133d90436117ba565b11156113805760405162461bcd60e51b815260206004820152601260248201527110dbdb5b5a5d1b595b9d08195e1c1a5c995960721b604482015260640161034b565b60008160000151408260200151336040516020016113c393929190928352602083019190915260601b6bffffffffffffffffffffffff1916604082015260540190565b60408051601f1981840301815291815281516020928301203360009081526004909352908220828155600101919091559392505050565b600080805b60038160ff16101561149157838160ff166003811061142057611420611760565b602002015160ff1615611491576009848260ff166003811061144457611444611760565b602002015160ff161161147057838160ff166003811061146657611466611760565b6020020151611473565b60005b61147d90836117cd565b915080611489816117e6565b9150506113ff565b5061149d600a82611805565b9392505050565b600060078360ff16106114b957506000611560565b60028360ff16116114cc57506001611560565b8260ff166003036114e55750600860ff82161415611560565b8260ff1660040361150f5760028260ff1610158015611508575060078260ff1611155b9050611560565b8260ff166005036115375760048260ff1610158015611508575050600760ff82161115611560565b8260ff1660060361155c578160ff1660061480611508575050600760ff821614611560565b5060005b92915050565b6000600282600281111561157c5761157c61165b565b0361158c5761150883600961178a565b61150883600261178a565b508054600082556003029060005260206000209081019061088c91905b808211156115e55780546001600160a01b03191681556000600182015560028101805460ff191690556003016115b4565b5090565b6000602082840312156115fb57600080fd5b81356001600160a01b038116811461149d57600080fd5b60006020828403121561162457600080fd5b5035919050565b6000806040838503121561163e57600080fd5b82356003811061164d57600080fd5b946020939093013593505050565b634e487b7160e01b600052602160045260246000fd5b6003811061168f57634e487b7160e01b600052602160045260246000fd5b9052565b604081016116a18285611671565b82151560208301529392505050565b6000602082840312156116c257600080fd5b5051919050565b6000602082840312156116db57600080fd5b8151801515811461149d57600080fd5b8281526040810161149d6020830184611671565b602081016115608284611671565b634e487b7160e01b600052601260045260246000fd5b6000826117325761173261170d565b500690565b634e487b7160e01b600052601160045260246000fd5b8082018082111561156057611560611737565b634e487b7160e01b600052603260045260246000fd5b6000826117855761178561170d565b500490565b808202811582820484141761156057611560611737565b6000600182016117b3576117b3611737565b5060010190565b8181038181111561156057611560611737565b60ff818116838216019081111561156057611560611737565b600060ff821660ff81036117fc576117fc611737565b60010192915050565b600060ff8316806118185761181861170d565b8060ff8416069150509291505056fecd5ed15c6e187e77e9aee88184c21f4f2182ab5827cb3b7e07fbedcd63f03300a2646970667358221220b76f5b37b12d74966f92d28865563e327cfb8a13fb2e639620feb2c55c23e99164736f6c63430008140033",
  "devdoc": {
    "errors": {
      "EnforcedPause()": [
        {
          "details": "The operation failed because the contract is paused."
        }
      ],
      "ExpectedPause()": [
        {
          "details": "The operation failed because the contract is not paused."
        }
      ],
      "InvalidInitialization()": [
        {
          "details": "The contract is already initialized."
        }
      ],
      "NotInitializing()": [
        {
          "details": "The contract is not initializing."
        }
      ],
      "OwnableInvalidOwner(address)": [
        {
          "details": "The owner is not a valid owner account. (eg. `address(0)`)"
        }
      ],
      "OwnableUnauthorizedAccount(address)": [
        {
          "details": "The caller account is not authorized to perform an operation."
        }
      ],
      "ReentrancyGuardReentrantCall()": [
        {
          "details": "Unauthorized reentrant call."
        }
      ]
    },
    "events": {
      "Initialized(uint64)": {
        "details": "Triggered when the contract has been initialized or reinitialized."
      },
      "Paused(address)": {
        "details": "Emitted when the pause is triggered by `account`."
      },
      "Unpaused(address)": {
        "details": "Emitted when the pause is lifted by `account`."
      }
    },
    "kind": "dev",
    "methods": {
      "owner()": {
        "details": "Returns the address of the current owner."
      },
      "paused()": {
        "details": "Returns true if the contract is paused, and false otherwise."
      },
      "renounceOwnership()": {
        "details": "Leaves the contract without owner. It will not be possible to call `onlyOwner` functions. Can only be called by the current owner. NOTE: Renouncing ownership will leave the contract without an owner, thereby disabling any functionality that is only available to the owner."
      },
      "transferOwnership(address)": {
        "details": "Transfers ownership of the contract to a new account (`newOwner`). Can only be called by the current owner."
      }
    },
    "version": 1
  },
  "userdoc": {
    "kind": "user",
    "methods": {},
    "version": 1
  },
  "storageLayout": {
    "storage": [
      {
        "astId": 4249,
        "contract": "contracts/BaccaratGame.sol:BaccaratGame",
        "label": "freeChipsToken",
        "offset": 0,
        "slot": "0",
        "type": "t_contract(FreeChips)5564"
      },
      {
        "astId": 4251,
        "contract": "contracts/BaccaratGame.sol:BaccaratGame",
        "label": "houseEdgeAccumulated",
        "offset": 0,
        "slot": "1",
        "type": "t_uint256"
      },
      {
        "astId": 4291,
        "contract": "contracts/BaccaratGame.sol:BaccaratGame",
        "label": "games",
        "offset": 0,
        "slot": "2",
        "type": "t_mapping(t_bytes32,t_struct(Game)4281_storage)"
      },
      {
        "astId": 4295,
        "contract": "contracts/BaccaratGame.sol:BaccaratGame",
        "label": "playerHouseEdgeBalances",
        "offset": 0,
        "slot": "3",
        "type": "t_mapping(t_address,t_uint256)"
      },
      {
        "astId": 4300,
        "contract": "contracts/BaccaratGame.sol:BaccaratGame",
        "label": "commitments",
        "offset": 0,
        "slot": "4",
        "type": "t_mapping(t_address,t_struct(Commitment)4286_storage)"
      }
    ],
    "types": {
      "t_address": {
        "encoding": "inplace",
        "label": "address",
        "numberOfBytes": "20"
      },
      "t_array(t_struct(Bet)4263_storage)dyn_storage": {
        "base": "t_struct(Bet)4263_storage",
        "encoding": "dynamic_array",
        "label": "struct BaccaratGame.Bet[]",
        "numberOfBytes": "32"
      },
      "t_array(t_uint8)3_storage": {
        "base": "t_uint8",
        "encoding": "inplace",
        "label": "uint8[3]",
        "numberOfBytes": "32"
      },
      "t_bool": {
        "encoding": "inplace",
        "label": "bool",
        "numberOfBytes": "1"
      },
      "t_bytes32": {
        "encoding": "inplace",
        "label": "bytes32",
        "numberOfBytes": "32"
      },
      "t_contract(FreeChips)5564": {
        "encoding": "inplace",
        "label": "contract FreeChips",
        "numberOfBytes": "20"
      },
      "t_enum(BetType)4255": {
        "encoding": "inplace",
        "label": "enum BaccaratGame.BetType",
        "numberOfBytes": "1"
      },
      "t_mapping(t_address,t_struct(Commitment)4286_storage)": {
        "encoding": "mapping",
        "key": "t_address",
        "label": "mapping(address => struct BaccaratGame.Commitment)",
        "numberOfBytes": "32",
        "value": "t_struct(Commitment)4286_storage"
      },
      "t_mapping(t_address,t_uint256)": {
        "encoding": "mapping",
        "key": "t_address",
        "label": "mapping(address => uint256)",
        "numberOfBytes": "32",
        "value": "t_uint256"
      },
      "t_mapping(t_bytes32,t_struct(Game)4281_storage)": {
        "encoding": "mapping",
        "key": "t_bytes32",
        "label": "mapping(bytes32 => struct BaccaratGame.Game)",
        "numberOfBytes": "32",
        "value": "t_struct(Game)4281_storage"
      },
      "t_struct(Bet)4263_storage": {
        "encoding": "inplace",
        "label": "struct BaccaratGame.Bet",
        "members": [
          {
            "astId": 4257,
            "contract": "contracts/BaccaratGame.sol:BaccaratGame",
            "label": "player",
            "offset": 0,
            "slot": "0",
            "type": "t_address"
          },
          {
            "astId": 4259,
            "contract": "contracts/BaccaratGame.sol:BaccaratGame",
            "label": "amount",
            "offset": 0,
            "slot": "1",
            "type": "t_uint256"
          },
          {
            "astId": 4262,
            "contract": "contracts/BaccaratGame.sol:BaccaratGame",
            "label": "betType",
            "offset": 0,
            "slot": "2",
            "type": "t_enum(BetType)4255"
          }
        ],
        "numberOfBytes": "96"
      },
      "t_struct(Commitment)4286_storage": {
        "encoding": "inplace",
        "label": "struct BaccaratGame.Commitment",
        "members": [
          {
            "astId": 4283,
            "contract": "contracts/BaccaratGame.sol:BaccaratGame",
            "label": "blockNumber",
            "offset": 0,
            "slot": "0",
            "type": "t_uint256"
          },
          {
            "astId": 4285,
            "contract": "contracts/BaccaratGame.sol:BaccaratGame",
            "label": "playerSeed",
            "offset": 0,
            "slot": "1",
            "type": "t_uint256"
          }
        ],
        "numberOfBytes": "64"
      },
      "t_struct(Game)4281_storage": {
        "encoding": "inplace",
        "label": "struct BaccaratGame.Game",
        "members": [
          {
            "astId": 4267,
            "contract": "contracts/BaccaratGame.sol:BaccaratGame",
            "label": "playerHand",
            "offset": 0,
            "slot": "0",
            "type": "t_array(t_uint8)3_storage"
          },
          {
            "astId": 4271,
            "contract": "contracts/BaccaratGame.sol:BaccaratGame",
            "label": "bankerHand",
            "offset": 0,
            "slot": "1",
            "type": "t_array(t_uint8)3_storage"
          },
          {
            "astId": 4274,
            "contract": "contracts/BaccaratGame.sol:BaccaratGame",
            "label": "winner",
            "offset": 0,
            "slot": "2",
            "type": "t_enum(BetType)4255"
          },
          {
            "astId": 4278,
            "contract": "contracts/BaccaratGame.sol:BaccaratGame",
            "label": "bets",
            "offset": 0,
            "slot": "3",
            "type": "t_array(t_struct(Bet)4263_storage)dyn_storage"
          },
          {
            "astId": 4280,
            "contract": "contracts/BaccaratGame.sol:BaccaratGame",
            "label": "isCompleted",
            "offset": 0,
            "slot": "4",
            "type": "t_bool"
          }
        ],
        "numberOfBytes": "160"
      },
      "t_uint256": {
        "encoding": "inplace",
        "label": "uint256",
        "numberOfBytes": "32"
      },
      "t_uint8": {
        "encoding": "inplace",
        "label": "uint8",
        "numberOfBytes": "1"
      }
    }
  }
}